:03000000020006F5
:03008C000200036C
:03000300020129CE
:20008F001205C5121AE4121B5ED296900002E4F0900001F022E582900001F022900001E0EE
:2000AF00F58222900002E0F58222E582900002F022AF82AE83ADF0FC900003EFF0EEA3F094
:2000CF00EDA3F0ECA3F07582021200B922AD82AE83AFF09000027401F0900007EDF0EEA331
:2000EF00F0EFA3F022C01B85811BE582FF600543DC02800353DCFDE51B24FCF8E660054320
:20010F00DA02800353DAFDE51B24FDF8E6600543DB02800353DBFDD01B22C01BE581F51BB7
:20012F002415F581E51B2410F87600E51B2411F87601E51B2412F87600E51B2413F8E4F60E
:20014F0008F60876001204D27597A590002175F04012008FD2AF7597A5905E5E75F080120F
:20016F001F7CE5EF30E3069000017419F07597A575820212258F403575820112258F402DCA
:20018F00900002E0FDBD010280237440C0E0E4C0E07418C0E07402C0E0E4C0E0D2F085F0A9
:2001AF00207582021226CAE58124FBF58112120B900002E0FD24FC50030203AFED2D2D907E
:2001CF0001D2730201DE0202BA0202E302031DAC08AD09A81B08ECC396FAED0896FBC3EA7B
:2001EF009496EB940092004010A81B08A60408A605EC4D24FF92008002C2002000030203E3
:20020F00AFE51B2411F8B61009E51B2412F87600800FE51B2411F8B60107E51B2412F87662
:20022F0001E51B2412F8E6604120951FE51B2411F88605E51B2411F806C005E4C0E07582FA
:20024F00001200F4158115810203AFE51B2411F88605E51B2411F806E4C0E0C0057582007E
:20026F001200F4158115810203AF20951FE51B2411F88605E51B2411F816C005E4C0E075FC
:20028F0082001200F4158115810203AFE51B2411F88605E51B2411F816E4C0E0C0057582AC
:2002AF00001200F4158115810203AF900007E0FBA3E0FCA3E0FD8B828C838DF01242229039
:2002CF000002E0FDBD010280030203AF900002E4F00203AF900003E0FAA3E0FBA3E0FCA312
:2002EF00E08C078F068B07C006C0078A821200F415811581E51B2411F87601E51B2403F8C7
:20030F00A60808A6099000027403F00203AFAC08AD09E51B2403F8ECC396FAED0896FBC3AB
:20032F00EA9496EB940092004012E51B2403F8A60408A605EC4D24FF92008002C200300059
:20034F004BE51B2411F8E66027E51B2411F87600900003E0FAA3E0FBA3E0FCA3E08C078BFB
:20036F0006C007C0068A821200F4158115818016E51B2411F87601E4C0E0C0E07582001236
:20038F0000F415811581E51B2410F806E51B2410F8B6050CE51B2410F87600900002E4F001
:2003AF00900001E0FEE0700302048C7D00C006C0057401C0E07469C0E0745EC0E07480C01A
:2003CF00E012233FE58124FAF581E4C0E0C0E07582381200F415811581E51B2413F8E51B0C
:2003EF002405F9E6F70809E6F70809E6F77A007B007E007F00E51B2405F8868208868308DF
:20040F0086F0E4125A48A31818A68208A6837597A50ABA00090BBB00050EBE00010FC3EBC0
:20042F009404EE9400EF6480948040C9E51B2405F8E51B2413F9E6F70809E6F70809E6F799
:20044F00900001E4F0AE08AF09E51B2408F8EEC396FCEF0896FDC3EC94F4ED94019200403E
:20046F0012E51B2408F8A60608A607EE4F24FF92008002C2002000057597A580C87580404D
:20048F007CD07D077E007F001CBCFF091DBDFF051EBEFF011FEC4D4E4F70EDF5807CD07D56
:2004AF0007FE7F001CBCFF091DBDFF051EBEFF011FEC4D4E4F70ED7597A502017C851B816C
:0304CF00D01B221D
:135E5E00553246205A45524F0D0A006572726F723A200069
:2004D200AFA775A700C00712051412051B75B1C312052712053112053812054212054912EB
:2004F200055C12057112058012059912059E1205AB1205B812058A12058E120592D0078F1F
:20051200A72275A72075C6042275A70075A903E5A930E7FB2275A70075A41075D4CF227570
:20053200A50075D5012275E10575E20375E3402275A71075C13022AF885388AF758D30740D
:20055200105FFE74405F4E428822740455C8FF53C8FB75CB4475CA8043C804EF42C8227444
:20057200045591FF5391FB439104EF429122758E1C7589214388402243C19F2243981022A8
:2005920075E68175A8A022C2DED2DE2253F77F75DA4275FB9675FC962253F77F75DB4275C3
:1305B200E99675EA962253F77F75DC4275EB9675EC962235
:12005F0090019C74BEF074BAA3F074FEA3F074CAA3F0A9
:2005C5007432C0E0E4C0E0C0E090012A75F000125DD41581158115817420C0E07401C0E03E
:2005E500E4C0E090000A75F000125DD41581158115819002EAE4F09002EBF09002ECF0A3A0
:20060500F09002EEF022AE82AF8390001AEEF0EFA3F0229002ECE4F0A3F09002EBF09002E1
:20062500EEF07420C0E07401C0E0E4C0E090000A75F000125DD41581158115817440C0E0B2
:20064500E4C0E0C0E090015C75F000125DD4158115811581229002EBE0FF600F7440C0E0D9
:2006650090015C75F000121E7C158112061822C01B85811B05810581AD82AE83AFF09002F6
:20068500EE7401F0E51B24FCF886030886049002EBE06003020756C005C006C00790000BC3
:2006A500E0FAA3E0FDA3E0FEA3E0FF90015CEAF0EDA3F0EEA3F0EFA3F09002ECA81B08E065
:2006C500F6A3E008F6D007D006D0059002ECE0F5F0A3E045F0703AC005C006C00790000F86
:2006E500E0FA90016075F000EA125A4890001AE0FAA3E0FF90016175F000EA125A48A3EF9A
:20070500125A489002EB7407F0D007D006D0058040C005C006C007A81B0886021A90016046
:2007250075F000EA125A489002EB7405F09002ECE0FAA3E0FF1ABAFF011FC3747F9AE49F2B
:20074500D007D006D00550097582121200A4020803C003C0049002EBE0FA04F0EA245CFAB7
:20076500E43401FC8D828E838FF0125E3EFBA3AD82AE838A828C83EBF0900018E0FBA3E018
:20078500FC0BBB00010C900018EBF0ECA3F09002EBE0FCBC40028006D004D0038050D0045B
:2007A500D0039002EBE4F09002ECE02401F0A3E03400F0C007C006C005C004C0037440C0A9
:2007C500E090015C75F000121E7C15817440C0E0E4C0E0C0E090015C75F000125DD41581FD
:2007E50015811581D003D004D005D006D007EB4C600C1BBBFF011CEB4C6003020693851B35
:2008050081D01B22AD82AE83AFF074042DFDE43EFE8D828E838FF0E508125A48A3E50912A1
:200825005A48A3E50A125A48A3E50B125A4822C01BE581F51B2404F5817E007F007C007D7D
:20084500007A007B00C006C007EA242AFEEB3401FF74082EFEE43FFF8E828F83E0D007D049
:20086500066024740A2AFAE43BFB0CBC00010D8C068D07C3EC9404ED6480948040C790006E
:2008850000E4F5F002093DC006C00790000A125BE5AE82AF8315811581EE242AFCEF3401DF
:2008A500FD9002EAE0FB04F0C006C00790019CA81B08E0F6A3E008F6A3E008F6A3E008F60D
:2008C5008B027B007E007F00A81B08EA26FAEB0836FBEE0836FEEF0836FF8C828D83EAF0C7
:2008E500EBA3F0EEA3F0EFA3F0EA4B4E4FD007D00660A68C828D83E0FCA3E0FDA3E0FBA352
:20090500E0FABCFF0BBDFF08BBFF05BAFF028089EE242AFEEF3401FF74082EF582E43FF555
:2009250083E4F08E828F83E0FEA3E0FFA3E0FDA3E0FC8E828F838DF0851B81D01B22C01B32
:2009450085811BAC82AD83AEF0FFE5812404F581E4FAFBE51B2403F8E4F608F6C004C00519
:20096500C006C007E51B2403F8A91B09E6242AF708E6340109F7A81B08740826FEE408361E
:20098500FF8E828F83E0D007D006D005D0047018A81B088682088683ECF0EDA3F0EEA3F0B2
:2009A500EFA3F07582008020E51B2403F8740A26F6E40836F60ABA00010BC3EA9404EB64E4
:2009C50080948040977582FF851B81D01B22C01B85811BAF82AE83ADF0FCE5812406F58186
:2009E5007B00A81B08EB75F00AA4F608A6F0A81B08E6242AF58208E63401F583C003E51B46
:200A05002403F8E0F6A3E008F6A3E008F6A3E008F6E51B2403F8E6B5071108E6B5060C08CA
:200A2500E6B5050708E6B504028004D0038018D003A81B08E6242AFD08E63401FE7C008D79
:200A4500828E838CF0800C0BBB0500409590000075F000851B81D01B22C01B85811BC082F5
:200A6500C083C0F0C0E0058105817B00EB75F00AA4FDACF0E51B2405F8ED242AF6EC34014D
:200A850008F6C003E51B2405F88682088683E0FAA3E0FBA3E0FEA3E0FFA81B08E6B5021182
:200AA50008E6B5030C08E6B5060708E6B507028004D0038027D003E51B2405F8868208869B
:200AC50083E4F0A3F0A3F0A3F0ED242AFEEC3401FF74082EF582E43FF583E4F00BBB05004D
:200AE500408A851B81D01B22C01B85811BAC82AD83AEF0FFC007C006C005C0047440C0E098
:200B0500E4C0E0C0E09001A075F000125DD4158115811581D004D005D006D0079001A0EC9E
:200B2500F0EDA3F0EEA3F0EFA3F09001A475F00074BF125A489001A775F000E51B24FDF806
:200B4500E6125A489001A5E4F5F0125A489001A675F00004125A48C007C006C005C0047465
:200B650040C0E09001A075F000121E7C1581D004D005D006D0078C828D838EF0EF120A5E5D
:200B8500D01B22AD82AE83AFF09002EE7401F09000147439F0E4A3F074042DFDE43EFE7471
:200BA500012DFAE43EFB8F048A828B838CF0125E3EFAA3125E3EFB900016EAF0EBA3F0745C
:200BC500032DFDE43EFE7439C0E0E4C0E0C005C006C00790001C75F000125A63E58124FB3B
:200BE500F58122C01BE581F51B2406F581AF82AD83AEF0900014E0FBA3E0FCA81B08743BF0
:200C05002BF6E43C08F6A81B08C3740E96740108965050758217C007C006C0051200A4D051
:200C250005D006D0078F828D838EF0E51B2403F8125E3EF6A3125E3E08F6A3125E3E08F6FD
:200C4500A3125E3E08F6747FC0E0E51B2403F886820886830886F008E6120AED158190FFDB
:200C6500FF804E74042FFAE43DFD0ABA00010D8E07EB241CFBEC3400FC7E00743BC0E0E489
:200C8500C0E0C002C005C0078B828C838EF0125A63E58124FBF581900014E0FDA3E0FE7487
:200CA5003B2DFDE43EFE900014EDF0EEA3F0900000851B81D01B22C01B85811BC082C08369
:200CC500C0F0E5812408F58190000FE0FCBC8103020F4BBC8303020E62BC84030210D3BCA8
:200CE50086028009BC88030210680211A8A81B08740426FFE40836FE08860574012FFAE4C5
:200D05003EFB8D048A828B838CF0125E3EFAA3125E3EFBBA0805BB0002803190000BE51BAA
:200D25002404F8E0F6A3E008F6A3E008F6A3E008F67403C0E0E51B2404F8868208868308DD
:200D450086F008E6120AED15810211F9900011C007C006C00512060BD005D006D007900057
:200D65000BE51B2404F8E0F6A3E008F6A3E008F6A3E008F6E51B2404F8B6FF5408B6FF50B4
:200D850008B6FF4C08B6FF48E51B2404F8E608460846084670097582201200A40211F9C03E
:200DA50007C006C005120834C8E51B2408C8A68208A68308A6F008F6D005D006D007E51B1B
:200DC5002408F886210886220886230886248010E51B2404F88621088622088623088624C6
:200DE50090002575F0407402125A4890002675F040125A4890002775F040E4125A489000D7
:200E05002875F040125A4890002975F0407403125A482FFAE43EFB8D047408C0E0E4C0E04C
:200E25008A828B838CF0120674158115817409C0E0E4C0E090002175F04012067415811531
:200E45008112065AAF21AE22AD23AC2490000BEFF0EEA3F0EDA3F0ECA3F00211F0A81B0892
:200E6500740426FAE40836FB0886040ABA00010B8A828B838CF0125E3EFAA3125E3EFBC309
:200E8500EA9404EB9400503190000BE51B2408F8E0F6A3E008F6A3E008F6A3E008F674033C
:200EA500C0E0E51B2408F886820886830886F008E6120AED15810211F9900014E0FBA3E037
:200EC500FC4B704EA81B0886820886830886F0120B88900014E0FBA3E0FCA81B087404269A
:200EE500FAE40836FE0886070ABA00010E8A828E838FF0125E3EFAA3125E3EFEC3EB9AECA4
:200F05009E50030211F090001C75F0001246730211F0A81B0886820886830886F0120BE892
:200F2500900014E0FEA3E0FF900016E0FCA3E0FDC3EE9CEF9D50030211F090001C75F00066
:200F45001246730211F0900014E0FEA3E0FF4E6003020FF0A81B0886820886830886F01294
:200F65000B88A81B08740426FBE40836FC088605E51B2408F874012BF6E43C08F608A60539
:200F8500E51B2408F886020886040886058A828C838DF0125E3EFAA3125E3EFC8A828C83D3
:200FA50012060B900014E0FFA3E0FEE51B2408F886020886030886058A828B838DF0125E2E
:200FC5003EFAA3125E3EFBC3EF9AEE9B4017C007C00690001C75F0001206741581158112F4
:200FE500065A0211F0758201021205743B2EFCE43FFDC3740E9C74019D5018C006C0079007
:20100500001C75F00012067415811581900014E4F0A3F0A81B0886820886830886F0120B08
:20102500E8900014E0FEA3E0FF900018E0FCA3E0FDEC2EFCED3FFD900016E0FAA3E0FBC3BB
:20104500EC9AED9B4017C006C00790001C75F0001206741581158112065A0211F075820163
:20106500021205A81B08740426FDE40836FE0886070DBD00010E8D828E838FF0125E3EFD14
:20108500A3125E3EFE4D601E90000BE0FCA3E0FDA3E0FEA3E0FF7403C0E08C828D838EF084
:2010A500EF120AED158190000012060BE4C0E0C0E090000075F00012067415811581120601
:2010C5005A90000075F012E41200C00211F0A81B08740426FDE40836FE08860774032DFD35
:2010E500E43EFE8D828E838FF0125E3EFF24F5502190000BE0FBA3E0FCA3E0FDA3E0FE748B
:2011050002C0E08B828C838DF0EE120AED15810211F0EF604E90000BE0FBA3E0FCA3E0FDED
:20112500A3E0FE9002E6EBF0ECA3F0EDA3F0EEA3F07E00C007C0069003E8125BE5AE82AF9F
:201145008315811581EF3395E0FDFC9002E2EE2508F0EF3509A3F0ED350AA3F0EC350BA37E
:20116500F0801D9002E2E508F0E509A3F0E50AA3F0E50BA3F09002E6E4F0A3F0A3F0A3F001
:2011850090000F7484F090000012060BE4C0E0C0E090000075F00012067415811581120627
:2011A5005A80487582181200A490000BE0FCA3E0FDA3E0FEA3E0FF7401C0E08C828D838E88
:2011C500F0EF120AED158190000FE0FF7E00C007C0067401C0E07471C0E0745EC0E0748003
:2011E500C0E01223A8E58124FAF5819002EEE0FFF582800C905E7F75F080121F7C7582001B
:20120500851B81D01B227F00EF75F00AA4242AFD740135F0FE74082DFBE43EFC8B828C8359
:20122500E070030212E68D828E83A3A3A3A3E0F9A3E0FAA3E0FBA3E0FCE508C399F9E5092D
:201245009AFAE50A9BFBE50B9CFCC3E994EEEA9402EB9400EC940050030212E68D828E83CE
:20126500E0F9A3E0FAA3E0FBA3E0FCC007C006C005C008C009C00AC00BC001C002C003C098
:20128500047402C0E0748EC0E0745EC0E07480C0E0122406E58124F4F581D005D0068D829D
:2012A5008E83E0F9A3E0FAA3E0FBA3E0FCC006C0057405C0E089828A838BF0EC120AED1584
:2012C50081D005D0068D828E83E0FDA3E0FEA3E0FCA3E08D828E838CF0120A5E120618D047
:2012E500070FBF0500500302120D22C01B85811BC082C083C0F0E5812407F581A81B0886F0
:20130500820886830886F0125E3EFAA3125E3EFBA3125E3EFCA3125E3E8A828B838CF0127D
:2013250009D3AD82AE83AFF0E51B2408F8A60508A60608A607A81B08740426FAE40836FB15
:201345000886048A828B838CF0125E3EFF20E70302143B74012AFDE43BFE8C078D828E83EC
:201365008FF0125E3EFDA3125E3EFEC374B99D741D9E5031A81B0886820886830886F0123E
:201385005E3EFFA3125E3EFEA3125E3EFDA3125E3EFC7403C0E08F828E838DF0EC120AED18
:2013A500158102185F8A828B838CF0125E3EFFBF8603021463C002C003C004A81B088682F9
:2013C5000886830886F0E51B2404F9125E3EF7A3125E3E09F7A3125E3E09F7A3125E3E09B7
:2013E500F790000BE0FCA3E0FDA3E0FEA3E0FFE51B2404F8E6B5041708E6B5051208E6B5C4
:20140500060D08E6B50708D004D003D002804FD004D003D0029002EEE060437406C0E0E53F
:201425001B2404F886820886830886F008E6120AED158102185FE51B2408F8E60846601BFC
:20144500E51B2408F8740826FDE40836FE0886078D828E838FF0125E3E700302185FA81B13
:201465000886820886830886F0E51B2404F9125E3EF7A3125E3E09F7A3125E3E09F7A312AB
:201485005E3E09F7E51B2404F8E6084608460846701B740BC0E0E51B2404F88682088683D8
:2014A5000886F008E6120AED158102185FE51B2404F8B6FF5208B6FF4E08B6FF4A08B6FFAD
:2014C500468A828B838CF0125E3EFFBF8602801B740BC0E0E51B2404F886820886830886B6
:2014E500F008E6120AED158102185FE51B2408F8765208760108760090015274FFF0A3F02F
:20150500A3F0A3F00215BF8A828B838CF0125E3EFF20E7030215BFE51B2408F8E6084660EF
:20152500030215BFC002C003C004E51B2404F886820886830886F008E6C004C003C0021284
:201545000943D002D003D004A81B0886820886830886F0125E3EFCA3125E3EFDA3125E3E16
:20156500FEA3125E3E8C828D838EF0C004C003C0021209D3AD82AE83AFF0D002D003D004CC
:20158500E51B2408F8A60508A60608A607D004D003D002E51B2408F8E60846700302185F51
:2015A500E51B2408F8740826FDE40836FE0886078D828E838FF0E4125A488A828B838CF0E1
:2015C500125E3EFFBF861AE51B2408F8740826FDE40836FE0886078D828E838FF0E4125A93
:2015E50048C002C003C004A81B0886820886830886F0125E3EFCA3125E3EFDA3125E3EFEAC
:20160500A3125E3EFF90000BECF0EDA3F0EEA3F0EFA3F0900010E508F0E509A3F0E50AA3EB
:20162500F0E50BA3F0E51B2408F8740426FDE40836FE0886078D828E838FF0E508125A487E
:20164500A3E509125A48A3E50A125A48A3E50B125A489002E2E0FCA3E0FDA3E0FEA3E0FFE0
:20166500C3E5089CE5099DE50A9EE50B9FD004D003D00240030217078A828B838CF0125E90
:201685003EFFBF8602807BC002C003C004A81B0886820886830886F0E51B2404F9125E3E4C
:2016A500F7A3125E3E09F7A3125E3E09F7A3125E3E09F79002E6E0FCA3E0FDA3E0FEA3E063
:2016C500FFE51B2404F8E6B5041708E6B5051208E6B5060D08E6B50708D004D003D0028015
:2016E50021D004D003D0027406C0E0E51B2404F886820886830886F008E6120AED158102EB
:20170500185F8A828B838CF0125E3EFF30E764E51B2408F8740826FDE40836FE0886078D8A
:20172500828E838FF0125E3E7049E51B2408F8E51B2404F9740926F7E4083609F70809E633
:20174500F78A828B838CF0125E3EFFE51B2404F886820886830886F0EF125A488A828B83D6
:201765008CF0125E3EFA90000FF09001E074FFF0021829900010E508F0E509A3F0E50AA30A
:20178500F0E50BA3F09001E0E0FF3395E0FEE51B2404F874012FF6E43E08F6A81B087404BE
:2017A50026FBE40836FC0886058B828C838DF0125E3EFA7F00E51B2404F8E6B5020708E6E0
:2017C500B50702803390000BE51B2404F8E0F6A3E008F6A3E008F6A3E008F67404C0E0E582
:2017E5001B2404F886820886830886F008E6120AED158112061880628B828C838DF0125E6A
:201805003EFB9001E0F0E51B2408F8740926FDE40836FE0886078D828E838FF0125E3EFD66
:2018250090000FF0E51B2408F8740826FDE40836FE088607A81B0886820886830886F0C07A
:2018450007C006C005120CBCAC82D005D006D0078D828E838FF0EC125A48851B81D01B22FA
:205E7100696E76616C696420636D643A200055324620484944204641494C0D0A0074696D1D
:0A5E9100656F7574206369642000DA
:0D616D000000000000000000000000000025
:20186500C01B85811BAF82E51420E1FB9002F9E4F0A3F0F5139002F8E0FE74034EF514E42D
:20188500F0F5108F0CE51B24FAF8860FE51B24FBF89002F2E6F008E6A3F008E6A3F0D2C5FE
:2018A500E51420E1FB850F82D01B22C01B85811BAF82E51420E1FB9002F9E4F0A3F0F513EF
:2018C5009002F8E0FE74024EF514E4F0E51B24FAF8860DE51B24FBF89002EFE6F008E6A352
:2018E500F008E6A3F0750E008F0CD2C5E51420E1FBD01B22C01B85811BAD82AE83AFF0E5DB
:201905001420E1FBE51B24FDF886119002F5EDF0EEA3F0EFA3F07512009002F8E0FF740433
:201925004FF0D01B22C01B85811BAE82AF83E51B24FDF886047D00EC6206ED6207EE30E030
:20194500118E04EFC313CC13CCFD6304016305A080098E04EFC313CC13CCFD8C068D07EE66
:2019650030E0118E04EFC313CC13CCFD6304016305A080098E04EFC313CC13CCFD8C068D2B
:2019850007EE30E0118E04EFC313CC13CCFD6304016305A080098E04EFC313CC13CCFD8CA9
:2019A500068D07EE30E0118E04EFC313CC13CCFD6304016305A080098E04EFC313CC13CC7F
:2019C500FD8C068D07EE30E0118E04EFC313CC13CCFD6304016305A080098E04EFC313CCB5
:2019E50013CCFD8C068D07EE30E0118E04EFC313CC13CCFD6304016305A080098E04EFC395
:201A050013CC13CCFD8C068D07EE30E0118E04EFC313CC13CCFD6304016305A080098E0447
:201A2500EFC313CC13CCFD8C068D07EE30E0118E04EFC313CC13CCFD6304016305A0800907
:201A45008E04EFC313CC13CCFD8C828D83D01B22AE82AF8374AA5EFC74AA5FC313CC13CC7F
:201A6500FD74555EFA74555FCA25E0CA33FBEA4CFEEB4DFF74CC5EFC74CC5FC313CC13CC2F
:201A8500C313CC13CCFD74335EFA74335FCA25E0CA33CA25E0CA33FBEA4CFEEB4DFF74F05C
:201AA5005EFC74F05FC4CCC4540F6CCC540FCC6CCCFD740F5EFA740F5FC454F0CAC4CA6A2A
:201AC500CA54F0CA6AFBEA4CFEEB4DFF8F058D047D008E07E44204EF42058C828D8322750D
:031AE500140022C8
:1B007100E4F508F509F50AF50BF50CF50DF50EF50FF510F511F512F513F51469
:0C617A0000000000000000000000000019
:201AE800C01B85811BAF82751503E51B24F7F8740726F5168F17E51B24FDF88618E51B24E4
:201B0800FBFFFEEE04F987068E198F0187078F1AE51B24F7F8E6C0E0E51B24F8F886820822
:201B280086830886F01218F915817406C0E07415C0E07400C0E07440C0E07582C01218B021
:201B4800E58124FCF581E51430E6057582FF8003758200D01B227401C0E0749BC0E0745E5A
:201B6800C0E07480C0E07582C01218B0E58124FCF581227401C0E0749DC0E0745EC0E074CE
:201B880080C0E07582C01218B0E58124FCF581227402C0E0749FC0E0745EC0E07480C0E09F
:201BA8007582C01218B0E58124FCF58122C01B85811BC082C083C0F00581E51B24FDF8E6B8
:201BC800C0E0A81B08E6C0E008E6C0E008E6C0E07582C0121865AC82E58124FCF581E51B80
:201BE8002404F8A604E51430E6067582FF021CF2E51430E4067582061200A4E51B2404F812
:201C0800E51B24FDF9C3E7964051E51B2404F8B604004047A81B08E51B2404F9E726FAE499
:201C28000836FB088607EA24FEFAEB34FFFB8A828B838FF0125E3EFAA3125E3EFB9002F997
:201C4800E0FEA3E0FFEAB50606EBB5070280187582151200A47582FF021CF2758216120049
:201C6800A47582FF021CF2E51B2404F8B60424A81B08740126FDE40836FE0886078D828EFF
:201C8800838FF0125E3EFF600A8F821200A47582FF8057E51B24FAF8E608466046E51B247B
:201CA800FAF88605088606088607E51B2404F8E624FDFB8D828E838FF0125A480DBD000136
:201CC8000EA81B08740126FAE40836FB0886048D828E838FF0EA125A48A3EB125A48A3ECD1
:201CE800125A48E51B2404F88682851B81D01B22AF82BF40028007BF41087F3280067F64F7
:201D080080027F207E007D007C008F828E838DF0EC121E2422C01B85811BAF827E00C007B0
:201D2800C006121B98D006D007C007C006E51B24F7F8E6C0E0E51B24F8F8E6C0E008E6C0F5
:201D4800E008E6C0E0E51B24FBF8E6C0E008E6C0E0E51B24FDF8E6C0E08F82121AE8AD82EF
:201D6800E58124F9F581D006D007BDFF1D90000AE4F5F0C007C006121E24D006D0070EEEEF
:201D880024F750A57582FF021E218E05C007C005E51B24F0F8E6C0E008E6C0E008E6C0E027
:201DA800E51B24F3F8E6C0E0E51B24F4F886820886830886F0121BB5AC82E58124FCF581D3
:201DC800D005D007BCFF4C0DEDFE24FA50057582FE8046C007C006C0051200ABAC82D00510
:201DE800D006D007BC000F8F82C007C005121CF8D005D00780968F027B007C007D008A82CD
:1C1E08008B838CF0EDC007C006121E24D006D007021D31121B5E758200D01B22DA
:075E9B0002000100000000FD
:201E2400C01B85811BC082C083C0F0C0E0E5812404F581E51B2405F8A60808A60908A60A8B
:201E440008A60BE51B2405F8E508C396FCE5090896FDE50A0896FEE50B0896FFA81B08C333
:201E6400EC96ED0896EE0896EF089650057597A580D1851B81D01B22C01B85811BAD82AEDA
:201E840083AFF07C00E51B24FDF886027B00C007C006C005C004C002C003C005C006C00797
:201EA400C2F085F02075820112295CAB82E58124FBF581D004D005D006D007EB60279000C8
:201EC40002E4F5F0C007C006C005C004121E24D004D005D006D0078C030CEB24E150A6757D
:201EE40082141200A4D01B228582997FC8DFFE7FC8DFFE7FBEDFFE7597A522C01B85811BB4
:201F0400C082C083C0F07C00E51B24FDF8C3EC965057A81B08EC26FAE40836FB0886078AF4
:201F2400828B838FF0125E3EFABA1000500D905EA275F080C004121F7CD004A81B08EC2628
:201F4400FDE40836FE0886078D828E838FF0125E3EFD7F007E007B008D828F838EF0EBC0BF
:201F640004122237D0040C809F905EA575F080121F7C851B81D01B22AD82AE83AFF08D828E
:201F84008E838FF0125E3EFC60180DBD00010E8C82C007C006C005121EECD005D006D007B4
:201FA40080DC22C01B85811BE51B24F9F886047D007E007F00C004C005C006C007E51B2450
:201FC400FAF886820886830886F008E6125D46AC82AD83AEF0FFE58124FCF581E51B24FABC
:201FE400F8A60408A60508A60608A607E51B24FAF8E608460846084670AED01B22C01BE54E
:2020040081F51B240BF581AD82AE83AFF08D828E838FF0125E3EFAA3125E3EFBA3125E3EA3
:20202400FCA81B08EA24FFF6EB34FF08F608A6048D828E838FF0A81B08E6125A48A308E66F
:20204400125A48A308E6125A48C005C006C007E51B24F9F8E51B2404F9E6F709770009771E
:2020640000097700C007C006C005E51B2404F8E6C0E008E6C0E008E6C0E008E6C0E0E51B3A
:2020840024FAF886820886830886F008E6125C83C8E51B2408C8A68208A68308A6F008F6FF
:2020A400E58124FCF581D005D006D0079002FBE0FCA3E0FDA3E0FFE51B2408F8E62CFC08F9
:2020C400E63DFD8C828D838FF0125E3EFCA81B0886820886830886F0EC125A48E51B24046B
:2020E400F8E6C0E008E6C0E008E6C0E008E6C0E0E51B24FAF886820886830886F008E61207
:202104005D46AC82AD83AEF0FFE58124FCF581E51B24FAF8A60408A60508A60608A607D075
:2021240007D006D005E51B24FAF8E60846084608466003022011851B81D01B22C01B85815E
:202144001BC082C083C0F0C0E0058105810581E51B2405F876E1087601087600A81B0808B1
:202164000808E630E7189001E1742DF0E51B2405F8740124E1F6E4340108F6087600E51B0D
:202184002405FBFA7E007F40C003E51B24FDF8E6C0E0A81B08E6C0E008E6C0E008E6C0E011
:2021A40008E6C0E08A828E838FF0121FA7E58124FBF581D003E51B2405F886050886060803
:2021C40086078D828E838FF0E4125A487F007E40E51B24FDF8E6C0E0A81B08E6C0E008E61C
:2021E400C0E008E6C0E008E6C0E08B828F838EF0122001E58124FBF581E51B2405F886822B
:202204000886830886F0851B81D01B22AC82AD83AEF0FF740AC0E08C828D838EF0EF122126
:2022240040AD82AE83AFF015818D828E838FF0121F7C22AC82AD83AEF0FF7410C0E08C822A
:202244008D838EF0EF122140AD82AE83AFF015818D828E838FF0121F7C22905EA875F0800C
:20226400121F7C22905EA575F080121F7C22C01B85811BE51B24FBF886820886830886F09A
:20228400121F7CE51B24FAFFE51B24FAF886068E051EE51B24FAF8A606ED6025EF24FEFDDB
:2022A400FF8D01870409870519ED3395E0FB8C828D838BF0C007C006122210D006D007802D
:2022C400CEE51B24FAF8A606122268D01B22C01B85811BE51B24FBF886820886830886F017
:2022E400121F7CE51B24FAFFE51B24FAF886068E051EE51B24FAF8A606ED6032EF24FCFD70
:20230400FF8D0187020987030987040987051919198A828B838CF0EDC007C00612221090B8
:202324005EA875F080121F7CD006D00780C1E51B24FAF8A606122268D01B22C01B85811BAC
:20234400E51B24FBF886820886830886F0121F7CE51B24FAFFE51B24FAF886068E051EE5C9
:202364001B24FAF8A606ED602EEF24FEFDFF8D018704098705197B007A008C828D838BF09F
:20238400EAC007C006122237905EA875F080121F7CD006D00780C5E51B24FAF8A606122247
:2023A40068D01B22C01B85811BE51B24FBF886820886830886F0121F7CE51B24FAFFE51B30
:2023C40024FAF886068E051EE51B24FAF8A606ED6023EF14F9FF87057C007B007A008D826D
:2023E4008C838BF0EAC007C00612223712225ED006D00780D0E51B24FAF8A606122268D0B0
:202404001B22C01B85811BE51B24FBF886820886830886F0121F7CE51B24FAFFE51B24FAE9
:20242400F886068E051EE51B24FAF8A606ED602CEF24FCFDFF8D01870209870309870409D6
:2024440087051919198A828B838CF0EDC007C00612223712225ED006D00780C7E51B24FA82
:09246400F8A606122268D01B2222
:195EA200300A000D0A002000303132333435363738396162636465660014
:03618600AA5E808E
:20246D00AFA7C0071241E5D007920075A71053CEFE7E018E82C007C006C0201224A3D02081
:20248D00D006D0070EBE030040E930000675A71043CE018FA722C01B85811B05810581AF07
:2024AD00827E00A81B0808A6A7EF6005BF030040057EFC022556C006C007C0061241E5D042
:2024CD0006D007920075A71053CEFEEF75F007A4ACF024F7FBEC3401FC74052BFAE43CFDAC
:2024ED008A828D83E0FEBE0104D006805CD006BF01028005BF02408020758201C006C0051F
:20250D00C004C003C002C02012409BD020D002D003D004D005D006801E758201C006C00563
:20252D00C004C003C002C0201240F3D020D002D003D004D005D0068A828D837401F0740611
:20254D002BF582E43CF583E4F030000675A71043CE01A81B080886A78E82851B81D01B22AE
:20256D00AFA79001FC7401F075A72043B38075A72043B3408FA722AFA775A72053B37F8FE4
:20258D00A722AF82BF03004003D38020EF75F007A4AEF024F7FFEE3401FE8F828E83A3A37C
:2025AD00A3A3A3E0FFBF0103C38001D3229001ECE0F58222AD82AE83AFF0ACA775A7105383
:2025CD00CEFEC007C006C005C004123DCFD004D005D006D0077B00EB24EAF582E43401F59F
:2025ED0083E4F00BBB2B0040EEC0048D828E838FF0125E3EFAA3125E3EFBA3125E3EFC9024
:20260D00020CEAF0EBA3F0ECA3F074032DFAE43EFB8F048A828B838CF0125E3EFAA3125E29
:20262D003EFBA3125E3EFC90020FEAF0EBA3F0ECA3F074062DFAE43EFB8F048A828B838C98
:20264D00F0125E3EFAA3125E3EFBA3125E3EFC900212EAF0EBA3F0ECA3F074092DFDE43EF8
:20266D00FE8D828E838FF0125E3EFD9001EBF075A72053B5F875A72043B32075A72053B5C7
:20268D007F75AE0175AF08D004E5AE20E7FB75AE0B75AF0FE5AE20E7FBC00412256DD004C3
:2026AD009001EC7403F075A71043CE018CA775AE0175AF01E5AE20E7FB75820022C01B8561
:2026CD00811BAF82AEA7BF00028010BF01028005BF020280067582FC0227A7EF6010900137
:2026ED00ECE0FDBD060280067582F70227A7EF75F007A4ADF024F7FFED3401FD74052FFB83
:20270D00E43DFC8B828C83E0FABA0102800FBA05067582FB0227A77582FE0227A7C007C07A
:20272D0006C005C004C003C0201241E5D020D003D004D005D006D007920175A71053CEFE2B
:20274D008F828D83E51B24FBF8E6F008E6A3F008E6A3F08F828D83A3A3A3E51B24F9F8E657
:20276D00F008E6A3F08B828C837403F0232FFFE43DFD8F038D04A200E433FA8B828C8313E4
:20278D00E092E0F08F828D83E054F7F030010675A71043CE018EA7758200D01B22AF82AE21
:2027AD00A7EF6005BF030040057582FC8070C007C0061241E5D006D007920075A71053CED6
:2027CD00FEBF01028005BF024780219002037406F0758201C006C020123FF9D020D00675DC
:2027ED00AE1175AF10E5AE20E7FB802490020A7406F0758201C006C020123FF9D020D006EC
:20280D0075AE94E5AE20E7FB43AF20E5AE20E7FB30000675A71043CE018EA7758200227581
:20282D00A71053CEFE122584758200122A9D22AFA7C007124036D0079200E433FEBE010224
:20284D0080030228D775A72053B3BC75A72053B5F843B501C0071241EE920075A71053C1DA
:20286D00CFC0201241F8D020D0079201E433FEBE0112D20175A72043C6027E03EE14FDFE79
:20288D0070FA8002C201C007C020124202D020C020124036D020D0079202E433FEBE0102F6
:2028AD0080E4A201E433FEBE010675A72053C6FDA200E433FEBE010675A71043C13075A7E0
:2028CD002053B5F875A72043B3408FA722AF82AEA7EF6005BF030040057582FC8070C00776
:2028ED00C0061241E5D006D007920075A71053CEFEBF01028005BF02478021900203740149
:20290D00F0758201C006C020123FF9D020D00675AE1175AF00E5AE20E7FB802490020A746B
:20292D0001F0758201C006C020123FF9D020D00675AE94E5AE20E7FB53AFDFE5AE20E7FB29
:20294D0030000675A71043CE018EA775820022C01B85811B05810581AF82AEA7E4BF000176
:20296D0004FD700BBF010280067582FC022A97EF60109001ECE0FCBC060280067582F702DE
:20298D002A97EF75F007A4ACF024F7FBEC3401FCA81B0874052BF6E43C08F6A81B08868245
:2029AD00088683E0FABA0102800FBA05067582FB022A977582FE022A97C007C006C005C08F
:2029CD0004C003C0201241E5D020D003D004D005D006D007920175A71053CEFE8B828C83F8
:2029ED00E51B24FBF8E6F008E6A3F008E6A3F08B828C83A3A3A3E51B24F9F8E6F008E6A35A
:202A0D00F0A81B0886820886837402F074062BFBE43CFCA200E433FA8B828C8313E092E07F
:202A2D00F0ED7005BF015580099001FDE04404F0804A9001FEE0FCA3E0FDA3E0FFE51B2498
:202A4D00F9F8C3744096E4089650067A407B00800AE51B24F9F88602088603C006C020C040
:202A6D0004C005C007C002D2F085F020758201123573E58124FCF581D020D0063001067580
:202A8D00A71043CE018EA7758200851B81D01B22AF829001ECE0FEBE05004010BF05005053
:202AAD000BC007C00612246DD006D007BF05059001EDEEF09001ECEFF0EEB507028009C0AB
:092ACD00078E82123DD115812211
:202AD6009001EFE0FF24F45003022B57EF240A83F582EF241083F583E473080F5718572108
:202AF6002A57333C454E2B2B2B2B2B2B2B2B2B2B2B2B122EA4AF82804A122B66AE828E07F2
:202B16008041123144AE828E078038122FBBAE828E07802F122CBCAE828E078026122C4483
:202B3600AE828E07801D12302BAE828E078014122E4FAE828E07800B1231FFAE828E0780F1
:202B5600027FFF758200C007123FF9D0078F82227FFF9001F4E0FDA3E0FE4D6003022C414D
:202B76009001EEE0541FFEBE02028003022C419001F0E0FDA3E0FE4D6003022C419001F23A
:202B9600E0FDA3E0FEED547F7012EE700F9001ECE0FCBC040040057F00022C41747F5DFB7B
:202BB6008E04C3EB9403EC94004003022C419001ECE0FCBC06757F0053057F8D82C0071228
:202BD6003FF9D0079001F2E0FDA3E0FEED30E70B75AE1175AF40E5AE20E7FBED20E7187532
:202BF600AE94E5AE20E7FB53AFDFE5AE20E7FB43AF80E5AE20E7FB7E00BD0105BE000280EA
:202C160008BD8127BE0024801290020AE0FEBE0302801890020A7401F08010900203E0FEE4
:202C3600BE020280069002037401F08F82227FFF9001F2E0FDA3E0FE4D6003022CB9900182
:202C5600F0E0FDA3E0FE4D705A9001F4E0FDA3E0FEBD014FBE004C9001EEE0235401FEBE6C
:202C760001419001EEE0541F70399001ECE0FEBE04187401C0E0E4C0E0905EBB75F0801213
:202C96003289158115817F008019BE06167401C0E0E4C0E09001EA75F00012328915811554
:202CB600817F008F8222C01BE581F51B2404F581E4FEFFE51B2404F876FF9001EEE0FCBC4F
:202CD60080028003022E429001F0E0FBA3E0FC8B028C057C00BD0105BC00028013BD02051A
:202CF600BC00028037BD0305BC00028064022E0EEA6003022E0E90020CE0FFA3E0FEA3E098
:202D1600FDA81B08A60708A60608A6058F828E838DF0125E3EFAFE7F00022E0EEA60030270
:202D36002E0E90020FE0FFA3E0FEA3E0FDA81B08A60708A60608A60574022FFAE43EFC8A9A
:202D5600828C838DF0125E3EFEA3125E3EFF022E0E900212E0FBA3E0FCA3E0FDEA75F00345
:202D7600A42BFBEC35F0FC8B828C838DF0125E3EFBA3125E3EFCA3125E3EFDA81B08A60315
:202D960008A60408A605EA700C7E04FF9001F6E05480F080639001F2E0FCA3E0FD4C600632
:202DB600BC0955BD04529001EBE0FDC3EA9D5048A81B08740126FBE40836FC0886058B8276
:202DD6008C838DF0125E3EFE7F00A81B0886820886830886F0125E3EFA9001F6547FF5F0DD
:202DF600E0548045F0F0A81B08A60308A60408A6059001F6E04480F0EE4F60309001F4E0BE
:202E1600FCA3E0FDC3EC9EED9F50048C068D07C006C007A81B0886820886830886F012329A
:202E36008915811581E51B2404F87600E51B2404F88682851B81D01B229001F2E0FEA3E0F7
:202E5600FF7DFFC3EE9401EF9400503F9001F4E0FEA3E0FFBE0134BF00319001F0E0FEA3BF
:202E7600E0FF4E70269001EEE0FFBF811E9001ECE0FFBF06167401C0E0E4C0E0905EBB75CF
:202E9600F080123289158115817D008D82227FFF9001F4E0FDA3E0FEBD0205BE000280039D
:202EB600022FB89001F0E0FDA3E0FE4D6003022FB89001EEE0235401FEBE01028003022F51
:202ED600B89001ECE0FEBE04005003022FB8900215E4F0A3F09001EEE0541FFE600DBE01C1
:202EF600028031BE02028041022F9D9001F2E0FDA3E0FE4D6003022F9D123DD9501290023D
:202F160015E0FDA3E0FE90021574014DF0EEA3F07F0080739001F2E0FDA3E0FEC3ED9401B6
:202F3600EE940050627F00805E9001F2E0FDA3E0FEED547F700FEE700C9001ECE0FCBC0447
:202F5600047F0080429001ECE0FCBC063A7E00BD0105BE00028008BD812DBE002A801590C0
:202F7600020AE0FEBE06099002157401F0E4A3F07F008013900203E0FEBE06099002157494
:202F960001F0E4A3F07F00EF7018C0077402C0E0E4C0E090021575F0001232891581158157
:202FB600D0078F82227FFF9001F0E0FDA3E0FEC3ED9480EE9400505A9001F4E0FBA3E0FCC5
:202FD6004B704F9001EEE0541F70479001F2E0FBA3E0FC4B703C9001ECE0FCBC030EED4E13
:202FF6006006758204122A9D7F00800FBC040CED4E7006758203122A9D7F00EF7014F5AE8E
:203016009001F0E0FDA3E0FE4305808DAFE5AE20E7FB8F82227FFF9001F0E0FDA3E0FEFB97
:203036007C00EB4C60030231419001EEE0541F60030231419001F4E0FBA3E0FC4B600302B8
:2030560031419001F2E0FBA3E0FC4B60030231419001ECE0FCBC040280030230EFED4E608F
:2030760031C00790020FE0FAA3E0FBA3E0FF74052AFAE43BFB8A828B838FF0125E3EFA7F50
:2030960000EDB50206EEB507028005D007023141D0078D039001EAEBF09001F0E0FFA3E054
:2030B600FE90020FE0FDA3E0FCA3E0FB74052DFDE43CFC8D828C838BF0125E3EFB7A00EF17
:2030D600B50312EEB5020ED2F085F020123242758206122A9D7F008052BC064FED4E602687
:2030F60090020FE0FAA3E0FBA3E0FC74052AFAE43BFB8A828B838CF0125E3EFA7C00EDB52F
:203116000229EEB504259001EAEDF09001F0E0FDA3E0FE4D700B758204122A9D12246D80AC
:2031360008C2F085F0201232427F008F82227FFF9001F4E0FDA3E0FE4D60030231FC900121
:20315600EEE0541FFEBE020280030231FC9001F2E0FDA3E0FEED547F7011EE700E9001EC9B
:20317600E0FCBC040040047F00807B747F5DFB8E04C3EB9403EC9400506C9001F0E0FBA382
:20319600E0FC4B70619001ECE0FCBC06597F0053057F8D82C007123FF9D0079001F2E0FD00
:2031B600A3E0FEED30E70B75AE1175AF10E5AE20E7FBED20E71075AE94E5AE20E7FB43AF2A
:2031D60020E5AE20E7FB7E00BD0105BE00028008BD8113BE0010800890020A7406F0800668
:2031F6009002037406F08F82227FFF9001F2E0FDA3E09001F0E0FCA3E0FEBD0100502A9080
:2032160001ECE0FEBE06229001F4E0FDA3E0FE4D7017EC70149001EEE0541FFEBE010AC265
:20323600F085F0201232427F008F8222A200E433FFBF010A9002037401F090020AF07440FF
:20325600C0E0E4C0E0D2F0D2F1C2F285F020758201124127158115817440C0E0E4C0E0C22E
:20327600F0D2F1C2F285F0207582011241271581158122C01B85811BAD82AE83AFF09001F0
:20329600FCE0FCBC01249001F7EDF0EEA3F0EFA3F09001FAE51B24FCF8E6F008E6A3F0906D
:0D32B60001FC7402F09001FDE4F0D01B2239
:2032C300C01B85811B05810581758201123FF912408C500E75AE1175AF00E5AE20E7FB0276
:2032E30033D4900203E0FFBF020280030233D4900201E0FEA3E0FFC374409EE49F50067CA4
:20330300407D0080048E048F058C037D00EEC39BFEEF9DFF900201EEF0EFA3F09001FEE000
:20332300FAA3E0FBA3E0FDEC2AFAE43BFB9001FEEAF0EBA3F0EDA3F0900204E0540124FF13
:203343009200900201E0FBA3E0FDEE4F604D9001FEE0FAA3E0FEA3E0FFC374409BE49D50B1
:203363000AA81B0876400876008008A81B08A60308A605A81B088605C004C020C002C00610
:20338300C007C005D2F085F020758201123573E58124FCF581D020D004800D900204E0547E
:2033A300FEF09002037401F0A200E433FFBF0121900201E0FEA3E0FF7D00C006C007C004C8
:2033C300C005E4C0E0758201123FB6E58124FBF581851B81D01B22C01B85811B0581C20035
:2033E300758201C020123FF9D020C0201240CFD020501375AE94E5AE20E7FB53AFBFE5AEC4
:2034030020E7FB023530C0201240DED0204003023530C0201240ECAE82D020A81B08A606E1
:2034230090020AE0FFBF0302800C90020BE04402F07FF90234F2900208E0FCA3E0FDA81BB2
:203443000886027B00C3EC9AED9B501290020A7401F090020BE04402F07FF20234F290024C
:2034630005E0FBA3E0FCA3E0FDC020C003C004C005A81B08E6C0E0758201123535E58124EF
:20348300FCF581D02090020BE054FDF0900208E0FCA3E0FDA81B0886027B00ECC39AFCED13
:2034A3009BFD900208ECF0EDA3F0900205E0FAA3E0FBA3E0FEA81B08E62AFAE43BFB90028A
:2034C30005EAF0EBA3F0EEA3F0EC4D6008A81B08B64002800890020A7401F0D2007F007558
:2034E300AE94E5AE20E7FB53AFFEE5AE20E7FB90020BE05401FEBE0134A200E433FEBE0124
:203503000790020BE054FEF0900208E0FDA3E0FEA81B0886037C00C005C006C003C004C048
:2035230007758202123FB6E58124FBF5811581D01B22C01B85811BAF82E51B24FDF8E66057
:203543002CE5AE20E7FB74E04FF5AEC007E51B24FAF8E6C0E008E6C0E008E6C0E0E51B24BE
:20356300FDF88682123742E58124FCF581D01B22C01B85811BAF82E5AE20E7FB74204FF51D
:20358300AEC007C020E51B24FAF8E6C0E008E6C0E008E6C0E0E51B24FDF886821237AA15F2
:2035A3008115811581D020D007A200E433FEBE0118EF60158F82123FF975AE91E5AE20E7F9
:2035C300FB43AF01E5AE20E7FBD01B22C01B85811BAF82E51B24FDF88601EF14FEFF600A21
:2035E300E5AE20E7FBA7AF0980F0E51B24FDF8A601E5AE20E7FBE51B24FCF8742046F5AE7A
:20360300E51B24FDF88601A7AFD01B22C01B85811BAF82E51B24FDF886018F061FEE600ACB
:20362300E5AE20E7FB87AF0980F0D01B22C01B85811BAF82E51B24FCF88605088606EF14CF
:20364300FCFF6013E5AE20E7FB8D828E83E5AFF0A3AD82AE8380E7E51B24FCF8A60508A6E5
:2036630006E5AE20E7FBE51B24FBF8742046F5AEE51B24FCF88682088683E5AFF0D01B2256
:20368300C01B85811BAF82E51B24FCF886050886068F041FEC6013E5AE20E7FB8D828E83FD
:2036A300E0F5AFA3AD82AE8380E7D01B22C01B85811BAF82E51B24FDF88601EF14FEFF60DF
:2036C3000BE5AE20E7FBE5AFF30980EFE51B24FDF8A601E5AE20E7FBE51B24FCF874204601
:2036E300F5AEE51B24FDF88601E5AFF3D01B22C01B85811BAF82E51B24FDF886018F061F6F
:20370300EE600BE5AE20E7FBE3F5AF0980EFD01B22C01B85811BAF82E51B24FCF8860508D4
:2037230086068F041FEC6014E5AE20E7FB8D828E83E493F5AFA3AD82AE8380E6D01B22C0E2
:203743001B85811BAF82E51B24FBF88604088605088606EF14FBFF6017E5AE20E7FB8C821A
:203763008D838EF0E5AF125A48A3AC82AD8380E3E51B24FBF8A60408A60508A606E5AE2031
:20378300E7FBE51B24FAF8742046F5AEE51B24FBF886050886060886078D828E838FF0E562
:2037A300AF125A48D01B22C01B85811BAF82E51B24FBF886040886050886068F031FEB60A5
:1B37C30017E5AE20E7FB8C828D838EF0125E3EF5AFA3AC82AD8380E3D01B22E0
:2037DE00C020C0E0C0F0C082C083C007C006C005C004C003C002C001C000C0D075D0001213
:2037FE004006AF82C007124012AE82C00612401EAD82C00512402AAC82D005D006D007EF94
:20381E0030E3429001FDE0035401FBBB010A9001FCE0FBBB030280149001FDE00303540129
:20383E00FBBB010B9001FCE0FBBB020343060190020BE0035401FBBB010B90020AE0FBBB6D
:20385E000303430502EF30E213C007C006C005C004123A5FD004D005D006D007EF30E113BC
:20387E00C007C006C005C004123AB6D004D005D006D007EF30E00FC006C005C004123AA56E
:20389E00D004D005D006EE30E10FC006C005C0041232C3D004D005D006ED30E10BC006C019
:2038BE00041233DAD004D006EE30E007C0041238F3D0048C82123FF9D0D0D000D001D002D8
:2038DE00D003D004D005D006D007D083D082D0F0D0E0D02032758200123FF912405440053E
:2038FE00124045502175AE1175AF00E5AE20E7FB75AE1175AF80E5AE20E7FB9001FC740146
:20391E00F09001FDE4F012406350599001FDE0C4235401FFBF01099001FDE04402F08044FF
:20393E009001FCE0FFBF012D9001F6E4F01239939001EEE020E72D9001FCE0FEBE03028096
:20395E00239001F4E0FDA3E0FE4D60189001FDE04408F0800FBF0305123CBA80079001FD61
:20397E00E04402F09001FCE0FFBF02081240714003123AC022C01B85811B0581058105811C
:20399E00A81B0876EE087601087600A81B088602088603088604C002C003C0047408C0E002
:2039BE00758200123535E58124FCF58175AE1175AF40E5AE20E7FBA81B08740226FAE40800
:2039DE0036FB0886048A828B838CF0125E3EFEA3125E3EFF8A828B838CF0EE125A48A3EFAA
:2039FE00125A48A81B08740426FDE40836FE0886078D828E838FF0125E3EFBA3125E3EFC45
:203A1E008D828E838FF0EB125A48A3EC125A48A81B08740626FDE40836FE0886078D828E4D
:203A3E00838FF0125E3EFBA3125E3EFC8D828E838FF0EB125A48A3EC125A48851B81D01BE3
:203A5E00229001FC7401F09002037406F090020AF075AE0F75AF8FE5AE20E7FB75AE017596
:203A7E00AF01E5AE20E7FB75AE0B75AF0FE5AE20E7FB30B108758203122A9D8006758201B3
:203A9E00122A9D123DD0229001ECE0FFBF02004006758205122A9D229001EDE0F582122A83
:203ABE009D229001FDE0540124FF92009001FAE0FEA3E0FFC3EE9440EF9400920140067C69
:203ADE00407D0080048E048F058C079001F6E0547FFEBE01028003023BF29001F6E0235445
:203AFE0001FEBE01589001F7E0FBA3E0FDA3E0FEC007C004C020C003C005C0067402C0E05F
:203B1E00C2F085F020758200123573E58124FCF581D020D004D0079001F7E0FBA3E0FDA372
:203B3E00E0FE74022BFBE43DFD9001F7EBF0EDA3F0EEA3F01C1C9001F6E0547FF0ECC31347
:203B5E00FE7D00C3ED9E4003023C3EC0069001F7E0FAA3E0FBA3E0FEC007C006C005C02066
:203B7E00C002C003C0067401C0E0C2F085F020758200123573E58124FCF581D020D005D03E
:203B9E0006D0079001F7E0FAA3E0FBA3E0FE0ABA00010B9001F7EAF0EBA3F0EEA3F0C007D1
:203BBE00C006C005C02074BBC0E0745EC0E07480C0E023C0E0C2F085F020758200123573EC
:203BDE00E58124FCF581D020D005D006D0070DD006023B619001F7E0FBA3E0FDA3E0FEC0B4
:203BFE0007C004C020C003C005C006C004C2F085F020758200123573E58124FCF581D02006
:203C1E00D004D0079001F7E0FBA3E0FDA3E0FEEC2BFBE43DFD9001F7EBF0EDA3F0EEA3F0E3
:203C3E009001FDE054FBF09001FAE0FDA3E0FE8F037C00EDC39BFDEE9CFE9001FAEDF0EE9C
:203C5E00A3F0ED4E7021BF4002801C75AE1175AF0AE5AE20E7FB9001FC7401F09001F6E4F6
:203C7E00F09001FDF0800B75AE1175AF02E5AE20E7FBA200E433FEBE01219001FAE0FDA39C
:203C9E00E0FE7C00C005C006C007C004E4C0E0758200123FB6E58124FBF581229001FDE089
:203CBE00540124FF9200C020124080AF82D0209001FAE0FDA3E0FE8F037C00C3ED9BEE9C3D
:203CDE0050129001FC7401F09001FDE04402F07EF2023D90C003C0049001F7E0FAA3E0FC27
:203CFE00A3E0FDC007C004C003C020C002C004C005C007758200123535E58124FCF581D0A7
:203D1E0020D003D004D0079001F7E0FBA3E0FCA3E0FDEF2BFBE43CFC9001F7EBF0ECA3F072
:203D3E00EDA3F09001FAE0FCA3E0FD8F027B00ECC39AFCED9BFD9001FAECF0EDA3F07E00C3
:203D5E00EC4DD004D003701FBF4002801A75AE1175AF48E5AE20E7FB9001FC7401F0900183
:203D7E00FDE054FEF0800B75AE1175AF40E5AE20E7FBA200E433FFBF011E9001FAE0FDA3AD
:203D9E00E0FFC005C007C003C004C006758200123FB6E58124FBF58122758200123FF99061
:123DBE0001FC7405F075AE1175AF20E5AE20E7FB22223C
:203DD00022C01B85811BD01B22C322AE82AF837DFD8E038F048B828C83E054606003023E70
:203DF000DD8E828F83E0235401FCBC01028003023EDD8E828F83E0541FFCBC01028003024C
:203E10003EDD8E828F83A3E0FCBC06028003023FB38E828F83A3A3A3A3E0FBA3E0FC4B60E8
:203E300003023FB38E828F83A3A3E0A3E0FB7C00BB2249BC004674062EF582E43FF583E077
:203E5000FFA3E0FEC374229FE49E50067D227C0080048F058E04C005C00474BDC0E0745E11
:203E7000C0E07480C0E0C2F085F02075820012295CE58124FBF5817D00023FB3BB2105BC20
:203E900000028003023FB374062EF582E43FF583E0FBA3E0FCC374099BE49C50067F097ECE
:203EB0000080048B078C06C007C00674FFC0E0745EC0E07480C0E0C2F085F0207582001254
:203ED000295CE58124FBF5817D00023FB38E828F83E0C4035403FCBC01028003023FB38E01
:203EF000828F83E0541FFCBC01028003023FB38E828F83A3A3A3A3E0FBA3E0FC4B600302E1
:203F10003FB38E828F83A3E0FCBC0202803CBC0A028003023FB38E828F83A3A3E0FBA3E07D
:203F3000FCEB6003023FB374062EF582E43FF583E0FBA3E0FC4B706B8E828F83E02354017F
:203F5000FCBC0102805D7D0080598E828F83A3A3E0FBA3E0FC4B704B74062EF582E43FF564
:203F700083E0FBA3E0FCBB013ABC00378E828F83E0235401FFBF012B9002177418F074016D
:203F9000C0E0E4C0E07417C0E07402C0E0E4C0E0C2F085F02075820012295CE58124FBF5D9
:1F3FB000817D008D8222C01B85811BAF82BF020990021875F0001200DC900000D01B2232
:205EBD0006D0F10901A1010920150026FF007508954081020921150026FF007508954091D3
:205EDD0002C012010000000040C4CF000102030109022900010100803209040000020300FC
:205EFD000004092111010001222200070581034000050705010340000503040904011A03A4
:205F1D0053696C69636F6E204C61627300011203553246205A65726F000122034341464519
:205F3D0042414245464646464646464600011203553246205A65726F00DF5E80ED5E80FEE1
:035F5D000200033C
:0A618900165F1A5F2A5F365F4A5F57
:203FCF00AF8274804FF5AEE5AE20E7FBAEAF7D00EF144480F5AEE5AE20E7FBACAF7F00EC87
:203FEF004205EF42068D828E8322AF8275AE0E8FAFE5AE20E7FB2275AE86E5AE20E7FB85D8
:20400F00AF822275AE82E5AE20E7FB85AF822275AE84E5AE20E7FB85AF822275AE8EE5AED4
:20402F0020E7FB85AF822275AE81E5AE20E7FBE5AFA2E192002275AE91E5AE20E7FBE5AFB6
:20404F00A2E492002275AE91E5AE20E7FBE5AFA2E292002275AE91E5AE20E7FBE5AF139280
:20406F00002275AE91E5AE20E7FBE5AFA2E192002275AE96E5AE20E7FB85AF822275AE9121
:20408F00E5AE20E7FBE5AFA2E5920022123FF975AE1175AF08E5AE20E7FB75AE91E5AE2007
:2040AF00E7FBE5AF20E3F375AE1175AF08E5AE20E7FB75AE91E5AE20E7FBE5AF20E3F3229B
:2040CF0075AE94E5AE20E7FBE5AFA2E692002275AE94E5AE20E7FBE5AF1392002275821700
:2040EF00123FCF22123FF975AE1475AF10E5AE20E7FB75AE94E5AE20E7FBE5AF20E4F375D9
:20410F00AE1475AF10E5AE20E7FB75AE94E5AE20E7FBE5AF20E4F322C01B85811BAF827E61
:20412F0000C007C006C020123FF9D020D006D007A201E433FDBD0103ED8001E4FD60158F51
:20414F00F005F07B107C008006EB2BFBEC33FCD5F0F780138FF005F07B207C008006EB2B3C
:20416F00FBEC33FCD5F0F7E51B24FCF8C3EB96EC089640027E80A202E433FFBF0103430672
:20418F0040A200E433FFBF0120430620ED600343060475AE1175AF40E5AE20E7FB75AE12D0
:2041AF008EAFE5AE20E7FB802375AE1475AF80E5AE20E7FB75AE158EAFE5AE20E7FB2001E0
:2041CF000B75AE1275AF00E5AE20E7FBD01B2275820D123FCF2275A710E5CE139200227569
:2041EF00A710E5C1A2E592002275A720E5C633B3920022747F55A9FF75A93075A700439A60
:13420F00408FA9747F55A9FEB50702800575A9008FA9227A
:20422200C01B85811BC082C083C0F0E5812409F581A81B08740426FAE40836FB0886048AA6
:20424200828B838CF0125E3EFFBF2102801BBF2203024386BF240302444ABF88030244571A
:20426200BF89030244BA024515E51B2404F8E51B2408F6E51B2404F886057E007F40C004A7
:20428200C003C002C005C006C0077446C0E07421C0E07400C0E0EFC0E0E4C0E0C0E0C0E04F
:2042A200C0E0C0E0C0E0C0E075821B121D1DAF82E58124F2F581D002D003D004EF6003022E
:2042C2004352E51B2404F8E604F98705098706098707E51B2405F8A60508A60608A60774E2
:2042E200032AFDE43BFE8C07C004C003C0027420C0E0E4C0E0E51B2405F8E6C0E008E6C08C
:20430200E008E6C0E08D828E838FF0125A63E58124FBF581D002D003D00474012AFDE43B90
:20432200FE8C078D828E838FF07420125A48A3E4125A48A81B088605088606088607744095
:20434200C0E08D828E838FF0121E7C158102451A74012AFDE43BFE8C078D828E838FF0E4AA
:20436200125A48A3125A48A81B0886050886060886077440C0E08D828E838FF0121E7C15FD
:204382008102451AE51B2408FFE51B2405F8A60708760008764074032AFDE43BFE8C07C0F6
:2043A20004C003C002E51B2405F8E6C0E008E6C0E008E6C0E07446C0E07421C0E07400C0EC
:2043C200E07440C0E07414C0E0C005C006C007E4C0E0C0E0C0E0758216121D1DAF82E58179
:2043E20024F2F581D002D003D004E51B240CF8A60774012AFDE43BFE8C078D828E838FF0F6
:204402007401125A48A3E4125A4874032AFDE43BFE8C07E51B240CF8E670047C0180027CEB
:20442200008D828E838FF0EC125A48A81B0886050886060886077440C0E08D828E838FF0C9
:20444200121E7C158102451A90000075F012E41200C002451AE51B2408FFFC7D007E40C077
:2044620007C004C005C0067446C0E07421C0E07400C0E0EEC0E0E4C0E0C0E0C0E0C0E0EE61
:20448200C0E0E4C0E07402C0E0758202121D1DE58124F2F581D007EF04F9870509870609BB
:2044A20087078D828E838FF0125E3EFDBDFF69780076A575EF1280607404C0E0E4C0E0C0B8
:2044C200E090002175F040125DD4158115811581E51B2408FF7E007D40C007C006C0057473
:2044E20046C0E07421C0E07400C0E0EDC0E0C4C0E07421C0E07400C0E0EDC0E0C0E0E4C080
:20450200E07402C0E0758212121D1DE58124F2F58180057582008003758201851B81D01B59
:014522002276
:20452300C01B85811B0581AF1B0F7E007D407401C0E0C007C006C00590FBFF124596E5819E
:2045430024FCF581A81B08B6FF447403C0E07401C0E07421C0E07400C0E07440C0E090FBAA
:20456300C01245F0E58124FBF581A81B0876E0AF1B0F7E007D407401C0E0C0E0C007C006BF
:20458300C00590FBFF1245F0E58124FBF5811581D01B22C01B85811B0581AE82AF83E51B00
:2045A30024FBF88603088604088605E51B24FAF8A91B09E6F7A81B088602A81B0816EA60F5
:2045C30027A2AF9200C2AF8E828F83E493FAA3AE82AF838B828C838DF0EA125A48A3AB82BE
:2045E300AC83A20092AF80CD1581D01B22C01B85811B05810581AE82AF83E51B24F9F8A98E
:204603001B0909E6F4F7E51B24FBF88602088603088604E51B24FAF8A91B09E6F7A81B084C
:204623008605A81B0816ED6041A2AF9200C2AF75FF8075EF0275B7A575B7F1E51B24F9F8CC
:20464300E6428F8A828B838CF0125E3EFDA3AA82AB838E828F83EDF0A3AE82AF83A81B0893
:1046630008E6528FA20092AF80B3851B81D01B2234
:20467300C01B85811BC082C083C0F0E5812407F581A81B08E51B2408F9E6F70809E6F7082C
:2046930009E6F7A81B08740626FAE40836FB0886048A828B838CF0125E3EFAA81B0874058B
:2046B30026FBE40836FC0886078B828C838FF0125E3EFBE4FFFEE51B2404F8080808A6060A
:2046D30018A60718A603187600E4FCFEFFE51B2404F8EA46F6EC0846F6EE0846F6EF0846F1
:2046F300F6A81B08740426FBE40836FD0886078B828D838FF0125E3EFB7F008F058B06E4CC
:20471300FFFBE51B2404F8E6420308E6420708E6420608E642058B04C007C006C005C004FA
:20473300125080D004D005D006D007A81B0886820886830886F0125E3E60209000021206F4
:204753000BE51B2408F886820886830886F0E4125A48A3746E125A480248E8C004C007C032
:2047730006C005A81B08740126FAE40836FB0886078A828B838FF0125E3EFBBB010AD0056C
:20479300D006D007D0048022D005D006D007D004BB02028077BB030302486EBBC003024896
:2047B300B2BBFF030248B20248CBBC400BBF0008BE0005BD0002802090000212060BE51BC1
:2047D3002408F886820886830886F0E4125A48A37467125A480248E8A81B08740726FFE4C0
:2047F3000836FE0886058F828E838DF0124CE5AA82AB83E51B2408F886820886830886F0E0
:20481300EA125A48A3EB125A480248E8A81B08740226FFE40836FE0886058F828E838DF0BB
:20483300125E3EFFA81B08740726FEE40836FD088604C0078E828D838CF0124A8DAA82AB7A
:20485300831581E51B2408F886820886830886F0EA125A48A3EB125A48807AEC4F4E4D6061
:204873001F90000212060BE51B2408F886820886830886F0E4125A48A37467125A488055F7
:20489300124FF2AE82AF83E51B2408F886820886830886F0EE125A48A3EF125A488036E512
:2048B3001B2408F886820886830886F0E4125A48A37490125A48801D90000212060BE51BCA
:2048D3002408F886820886830886F0E4125A48A3746D125A48E51B2408F8860208860308F5
:2048F30086047402C0E0E4C0E08A828B838CF012505215811581125079851B81D01B22AD55
:2049130082AE83AFF074202DFAE43EFB8F048A828B838CF0125E3EFA530280E4BA80010491
:204933002446FC8D828E838FF0125E3EFD530580E4BD8001042CF58222C01B85811BC082B3
:20495300C083C0F005810581A81B08742026FAE40836FB0886048A828B838CF0125E3EFAD9
:20497300530280E4BA800104FDA81B0886820886830886F0125E3EFC530480E4BC80010427
:20499300FFE51B2404F97730E904F876448603EF2D2BF689048C027B007C40C007C005C03A
:2049B30001C0007402C0E0E4C0E08A828B838CF012505215811581D00076007401C0E0E4D4
:2049D300C0E0905F6075F08012505215811581D001D005D00774202FF78F037C000BBB0005
:2049F300010C89027E007F40C005C001C003C0048A828E838FF0125052158115817420C0F2
:204A1300E0E4C0E0A81B0886820886830886F0125052158115817401C0E0E4C0E0905F60F5
:204A330075F08012505215811581D001D00574202DF78D027F000ABA00010F89067D007CD6
:204A530040C002C0078E828D838CF012505215811581A81B08742026FDE40836FE088607C7
:204A73007420C0E0E4C0E08D828E838FF012505215811581851B81D01B22C01B85811BC002
:204A930082C083C0F0E581240BF581E51B240AF87601E51B24FDF8B6074890000212060B13
:204AB300A81B08742026FAE40836FB088604A81B08744126FDE40836FE088607C002C003D8
:204AD300C0048D828E838FF0125884AF82158115811581EF7006906985024CDF90698402F0
:204AF3004CDFE51B24FDF8B60351A81B08744026FDE40836FE0886078D828E838FF0125EEF
:204B13003EFDBD2436A81B08742026FDE40836FE088607A81B08744126FAE40836FB0886AE
:204B330004C005C006C0078A828B838CF0125884AF82158115811581EF600C900002120690
:204B53000B906A80024CDF125084E582600C90000212060B906985024CDF1259BAAC82AD77
:204B730083AEF0FFE51B240BF8A60408A60508A60608A607125131A81B08742026FDE40813
:204B930036FE0886077420C0E08D828E838FF01251761581E51B240AFFFC7D007E40C007CC
:204BB3007401C0E08C828D838EF01251761581E51B240BFEFD7C007B40C0067404C0E08DF6
:204BD300828C838BF012517615817420C0E0A81B0886820886830886F012517615811252DE
:204BF30020A81B08E51B2404F9742026F7E4083609F70809E6F7A81B08E51B2407F9744131
:204C130026F7E4083609F70809E6F7A81B088603088604088605E51B2404F8E6C0E008E647
:204C3300C0E008E6C0E0E51B2407F8E6C0E008E6C0E008E6C0E08B828C838DF01254BEAD04
:204C530082E58124FAF581D006D007BDFF059069A48079A81B0886030886040886058B823B
:204C73008C838DF0C007C006124912AD827C0074072DFDE43CFC8D828C8312060BD006D048
:204C9300077D007C40C0067401C0E0E4C0E08F828D838CF012505215811581D0067F007D13
:204CB300407404C0E0E4C0E08E828F838DF012505215811581A81B08860508860608860707
:204CD3008D828E838FF012494C909000851B81D01B22C01B85811BC082C083C0F0E5812472
:204CF3006DF581E51B240BF97700E904F87604C001C000125A38125084E582D000D001604D
:204D13000C90000212060B906985024FECC000E51B2431FCC000E51B2404F8A604087600EB
:204D3300087640A81B08C001E51B2408F9742026F7E4083609F70809E6F7D001E51B240734
:204D5300F8E51B240DF6E51B2407F886027B007F40D000C004C001C0008500F0E51B24048A
:204D7300F8E6C0E008E6C0E008E6C0E0A8F08500F0E51B2408F8E6C0E008E6C0E008E6C093
:204D9300E08A828B838FF012556CAF82E58124FAF581D000D001D004BFFF028004D0008080
:204DB3000ED00090000212060B909210024FECC004C001C000125131D000D00189077E0056
:204DD3007D40C001C0007401C0E08F828E838DF01251761581D000D001D004C000A81B085F
:204DF300742026FDE40836FE088607D000C004C001C0007420C0E08D828E838FF012517673
:204E13001581D000C0007420C0E0C000A81B0886820886830886F0D0001251761581D000F4
:204E3300D001D004C000E51B2407F88607D0007E007D40C004C001C0007424C0E08F828E23
:204E5300838DF01251761581D00088077E007D407401C0E08F828E838DF01251761581D043
:204E730001D0048C077E007D40C004C001EDC0E08F828E838DF01251761581125220D00107
:204E9300A81B08742026FDE40836FE088607A81B088602088603088604C004C001C005C048
:204EB30006C007E4C0E0C0E0C0E08A828B838CF01254BEAF82E58124FAF581D001D004BF05
:204ED300FF028004D0048008D004906984024FECA81B0886050886060886078D828E838F22
:204EF300F0C004C001124912AF82D001D0047E0074692FFFE43EFEC007C006C004C001121A
:204F13005A38AB82AD83D001D004D006D007EB2FFBED3EFD8B828D83C004C00112060BD06B
:204F330001770589077E007D40C0017402C0E0E4C0E08F828E838DF012505215811581D06C
:204F530001D0047F007E40C001EEC0E0E4C0E08C828F838EF012505215811581D00177246F
:204F730089077E007D407401C0E0E4C0E08F828E838DF012505215811581E51B2407F88692
:204F9300077E007D407424C0E0E4C0E08F828E838DF012505215811581125A38AE82AF837B
:204FB300C007C006125A31AB82AC83ADF0D006D007C006C0078B828C838DF012505215819E
:204FD3001581A81B0886050886060886078D828E838FF012494C909000851B81D01B22C055
:204FF3001BE581F51B2407F581A91B097755E904F87632740229F87646740329F8765F7412
:205013000429F87656740529F87632740629F87600900008C00112060BD00189077E007D61
:1E503300407406C0E0E4C0E08F828E838DF012505215811581909000851B81D01B22B4
:025F600002003D
:2050510022C01B85811BAD82AE83AFF0E51B24FCF8E6C0E008E6C0E08D828E838FF012063F
:205071007415811581D01B227597A512065A227597A522C01BE581F51B2404F581900001DA
:20509100E4F5F0121E24A81B08A60808A60908A60A08A60B3095FD30955290030CE0FB608E
:2050B10011E4C0E0C0E07582381200F4158115818011E4C0E07406C0E07582031200F41505
:2050D100811581A81B08E508C396FAE5090896FBE50A0896FEE50B0896FFC374B89A740BF6
:2050F1009BE49EE49F40057597A580AB2095147425C0E07412C0E07582001200F41581150E
:20511100818014E4C0E0C0E07582381200F4158115817582018003758200851B81D01B2244
:2051310090030DE4F090030FE0FFE4FEC0E0C0E0C0E07446C0E07498C0E07402C0E0E4C0E7
:20515100E0C0E0C0E0C0E0C0E0C007C00690030EE0C0E0758247121D1DE58124F2F5819024
:20517100030FE4F022C01B85811BAD82AE83AFF07597A5E51B24FDF886048C031CEB7003BE
:2051910002521DC00490030DE0FB04F0EB2498FBE43402FA8D828E838FF0125E3EFCA3AD0B
:2051B10082AE838B828A83ECF090030DE0FCBC40028004D00480C3D004C007C006C005C03A
:2051D10004E4C0E0C0E0C0E07446C0E07498C0E07402C0E0E4C0E07440C0E07498C0E074E2
:2051F10002C0E0E4C0E07440C0E0E4C0E004C0E0758247121D1DE58124F2F581D004D005D7
:20521100D006D00790030DE4F002518BD01B2290030EE0700690030E7402F090030DE0FFF4
:20523100FD7E0074DEC0E07402C0E0E4C0E07446C0E07498C0E07402C0E0E4C0E0C007747B
:2052510098C0E07402C0E0E4C0E0C005C00690030EE0C0E0758247121D1DE58124F2F58143
:2052710090030EE4F022C01BE581F51B2404F5817420C0E0E4C0E0C0E090002175F04012D7
:205291005DD4158115811581AF1B0F8F047D007E40C007C004C005C0067428C0E07421C0BC
:2052B100E07400C0E0EEC0E003C0E07421C0E07400C0E0EEC0E0E4C0E0C0E07403C0E07531
:2052D1008216121D1DAE82E58124F2F581D007EE600E905F6275F080121F7C90FFFF804E45
:2052F1007E007D40C007C006C0057428C0E07421C0E07400C0E0EDC0E0E4C0E0C0E0C0E03A
:20531100C0E004C0E0E4C0E07402C0E0758215121D1DAF82E58124F2F581EF600E905F8354
:2053310075F080121F7C90FFFF8003900000851B81D01B22C01B85811BAD82AE83AFF0C040
:2053510007C006C005741CC0E0E4C0E0C0E090002175F040125DD4158115811581D005D056
:2053710006D0077424C0E0E4C0E0C005C006C00790003D75F040125A63E58124FBF58112E3
:2053910051317420C0E0E51B24FBF886820886830886F012517615817521467522407523DE
:2053B100027524007525EE7526017527237440C0E090002175F0401251761581125220D0F1
:2053D1001B22C01BE581F51B2404F581AE82AF83C007C006125277D006D0077D00C006C016
:2053F10007ED2421F9E51B24FBF8ED26FAE40836FB0886048A828B838CF0125E3EFAE51B59
:2054110024F8F8ED26FBE40836FC0886078B828C838FF0125E3EFB6AF70DBD2400D007D06C
:205431000640BAE51B24F5F88603088604088605C007C0067420C0E0E4C0E0C003C004C010
:205451000590004575F040125A63E58124FBF581D006D007AD1B0D7C007B40C005C004C0F0
:20547100037428C0E07421C0E07400C0E0EBC0E07444C0E07421C0E07400C0E0EBC0E0C01C
:2054910006C007C0E0758246121D1DAF82E58124F2F581EF600E905F9375F080121F7C90E1
:2054B100FFFF8003900000851B81D01B22C01BE581F51B2404F581AD82AE83AFF07B027CB5
:2054D10000E51B24FBF8E6084670037B0FFCC005C006C007AA1B0A8A057E007F40C006C004
:2054F10005C002C005C006C0077446C0E07421C0E07400C0E0EFC0E0E4C0E0C0E0C0E0C0CC
:20551100E0C003C0047480C0E0758241121D1DAF82E58124F2F581D002D005D006EFD00795
:20553100D006D00560057582FF802AEA04F987020987030987047440C0E0E4C0E0C002C0B9
:2055510003C0048D828E838FF0125A63E58124FBF581758200851B81D01B22C01B85811BE9
:20557100C082C083C0F0E581242FF5817597A5E51B240BFCFA7B007F40C004C002C003C09D
:20559100077446C0E07421C0E07400C0E0EFC0E0E4C0E0C0E0C0E0C0E0C0E0C0E0C0E07508
:2055B100821B121D1DAF82E58124F2F581D004EF60067582FF02587E90030F7401F090033D
:2055D1000E7404F0C0041251317420C0E0E51B24FBF886820886830886F01251761581D0CB
:2055F10004EC04F987050987060987071919C004C0017404C0E08D828E838FF01251761598
:205611008190030E7405F0125220D00187050987060987071919A81B08860208860308863C
:2056310004C004C0017404C0E0E4C0E0C005C006C0078A828B838CF0125A63E58124FBF503
:2056510081E51B2404F8E51B240FF6E51B2404F886057E007F407404C0E0E4C0E0C0E08DBE
:20567100828E838FF0125DD4158115811581D001D0049002DFE0FDA3E0FEA3E0FFE51B24E8
:2056910004F8740426FC7B007A40C004C0017420C0E0E4C0E0C005C006C0078C828B838AF9
:2056B100F0125A63E58124FBF581D001D0047D047B00D004C001E51B2404F9ED27F8D001EB
:2056D1008607ED244CF582EB3461F583E493FE6FF60DBD00010BC3ED9424EB648094804025
:2056F100D3C0017597A5E51B2404F886077E007D40C004C0017427C0E07461C0E07480C083
:20571100E08F828E838DF0125345158115811581D001D0049002DFE0FDA3E0FEA3E0FFE5B2
:205731001B2405F8A60508A60608A607A81B08C001E51B2408F9740426F7E4083609F70898
:2057510009E6F7D001E51B2408F88605088606088607C004C0017420C0E0E4C0E0E51B2448
:2057710005F8E6C0E008E6C0E008E6C0E08D828E838FF0125A63E58124FBF581E51B2404E8
:20579100F886077E007D40E51B2408F8E6C0E008E6C0E008E6C0E07427C0E07461C0E0744E
:2057B10080C0E0C007C006C0059000021253D3AE82AF83E58124F7F581D001D004D001EEDF
:2057D1004F60067582FF02587EE51B2404F886077E007D40C004C0017424C0E0E4C0E0C04C
:2057F100E08F828E838DF0125DD4158115811581D001D0047F007E40C001C004C007C00620
:205811007446C0E07421C0E07400C0E0EEC0E0E4C0E0C0E0C0E0C0E07402C0E0E4C0E0C088
:20583100E0758240121D1DAF82E58124F2F581D001EF60057582FF80348705098706098750
:2058510007E51B24F8F886020886030886047440C0E0E4C0E0C005C006C0078A828B838CA1
:20587100F0125A63E58124FBF581758200851B81D01B22C01B85811BC082C083C0F0E581A1
:20589100242BF58190030F7401F090030E7404F01251317420C0E0E51B24FBF886820886AD
:2058B100830886F012517615817404C0E0A81B0886820886830886F0125176158190030EDD
:2058D1007405F0125220E51B240BFCFA7B007F40C0047404C0E0E4C0E0C0E08A828B838FC2
:2058F100F0125DD4158115811581D0049002DFE0FDA3E0FEA3E0FFE51B2404F8A60508A604
:205911000608A60774042CFA7B007F40C0047420C0E0E4C0E0E51B2404F8E6C0E008E6C013
:20593100E008E6C0E08A828B838FF0125A63E58124FBF581D0047E047F00EE2CF98705EE23
:20595100244CF582EF3461F583E493FB6DF70EBE00010FC3EE9424EF6480948040DCA81B72
:2059710008740426FDE40836FE0886077B007A40C005C006C0077427C0E07461C0E0748093
:20599100C0E0C004C003C0029000021253D3AE82E58124F7F5818E82851B81D01B22C01B03
:2059B10085811B758200D01B22C01BE581F51B2404F581AF1B0F8F047D007E40C007C00490
:2059D100C005C0067446C0E07421C0E07400C0E0EEC0E0E4C0E0C0E0C0E0C0E0C0E0C0E056
:2059F10004C0E0758224121D1DE58124F2F581D007EF04F987050987060987078D828E83FD
:205A11008FF0125E3EFDA3125E3EFEA3125E3EFFA3125E3E8D828E838FF0851B81D01B228E
:175A3100905FA675F08022906125E0FEA3E08E82F5832212060B225C
:205F620070617373207468726F75676820746F2074656D706B6579206661696C65640D0A89
:205F82000047454E444947206661696C65640D0A00505249565752495445206661696C65C8
:045FA200640D0A0080
:086193005802000000000000AA
:205FA6003082017A3082012002090091509AEA2811EF7C300A06082A8648CE3D0403023043
:205FC60045310B30090603550406130241553113301106035504080C0A536F6D652D537461
:205FE6006174653121301F060355040A0C18496E7465726E6574205769646769747320507C
:206006007479204C7464301E170D3137303132383036313734395A170D3137303232373088
:2060260036313734395A3045310B30090603550406130241553113301106035504080C0AF3
:20604600536F6D652D53746174653121301F060355040A0C18496E7465726E65742057691E
:20606600646769747320507479204C74643059301306072A8648CE3D020106082A8648CEAB
:206086003D03010703420004878F54285AD519B4C09513AD2266EC6A8152E611A933BB3D4A
:2060A600DCDE92C240539D3991EAF20A9661302FEC654C80AABA15EB9A704C8059937A5188
:2060C600BE07C32685ABB02B300A06082A8648CE3D0403020348003045022100ED71D4197F
:2060E60001A2FEA5A86EA9A48CF4CBC67FC7922856FA0501A9C9BFFB2E83243302203C56A2
:20610600157C118B46D253F9AC96F6D0AB4D0FF74AF0B0AFFB8CD018EEF0C3736867007E79
:20612600019B74BED400EA52886A9EB95C692A9C700A4F20B56623A957AF7159D8E8A66E33
:20614600752F294E62004849971347DBA01D24FD5C321566C69D982299E9A0222899790BD2
:07616600DD0F79A52CE2001A
:06003500E478FFF6D8FD9F
:20001300792EE94400601B7A0190616D78E275AA02E493F2A308B8000205AAD9F4DAF2759F
:02003300AAFF22
:1B5A480020F71130F6138883A88220F509F6A8837583002280FEF280F5F0225D
:205A6300C01B85811BC082C083C0F0E581240AF581A81B08E51B240BF9E6F70809E6F70822
:205A830009E6F7E51B24FBF8E51B2404F9E6F70809E6F70809E6F7097700A81B088604084F
:205AA30086050886067F00E51B2404F8C3E69C08E69D08E69E08E69F4003025B60A81B0871
:205AC3008605088606088607E51B24F9F8E62DFD08E63EFE1DBDFF011EE51B24FBF8860229
:205AE300088603088604E51B24F9F8E62AFA08E63BFB1ABAFF011BE51B2408F8A60208A6D4
:205B03000308A604E51B24F9F8E51B2404F9E6F70809E6F7E51B2404F88603088604E51B91
:205B23002404F816B6FF020816EB4C7003025BD2E51B2408F886820886830886F0125E3E15
:205B4300FCE51B2408F816B6FF0208168D828E838FF0EC125A481DBDFF011E80B7A81B08FE
:205B63008605088606088607E51B24FBF8E51B2404F9E6F70809E6F70809E6F7E51B24F960
:205B8300F8E51B2408F9E6F70809E6F7E51B2408F88603088604E51B2408F816B6FF0208E2
:205BA30016EB4C602AE51B2404F886820886830886F0125E3EFCA31818A68208A6838D826F
:205BC3008E838FF0EC125A48A3AD82AE8380BDE51B240BF886820886830886F0851B81D0A3
:025BE3001B2283
:205BE500C01B85811BC082C083E5812405F581AF1B0FE51B2403F8A607087600087640E554
:205C05001B24FCFD7E007F40E51B2406F9A81B088604E51B24FCF886038CF0EBA4F709A73F
:205C2500F0E51B240604F98704A81B08860374012DFAE43EFE8A828E838FF0125E3E8BF0E8
:205C4500A4FBE51B2403F8740126FDE40836FE0886078D828E838FF0125E3EFDE51B24FCCA
:1E5C6500F886078DF0EFA42B2CF7E51B2406F987060987078E828F83851B81D01B22A7
:20003B007800E84400600A790175AA00E4F309D8FC78E1E84402600C7903900001E4F0A3D3
:04005B00D8FCD9FAFA
:205C8300C01B85811BAC82AD83AEF0FF05817B00A81B087600E51B24FAF8080808E623543D
:205CA30001FA704DE51B24FAF8E625E0F608E633F608E633F608E633F6E51B24FAF8C3EC28
:205CC30096ED0896EE0896EF0896501AE51B24FAF8080808E6C313F618E613F618E613F62F
:205CE30018E613F6800BA81B0806A81B08860380A4E51B24FAF8C3EC96ED0896EE0896EF65
:205D030008964015E51B24FAF8ECC396FCED0896FDEE0896FEEF0896FFE51B24FAF8080872
:205D230008E6C313F618E613F618E613F618E613F68B021BEA70BA8C828D838EF0EF1581B4
:035D4300D01B2250
:205D4600C01B85811BC082C083C0F0C0E07A007B007E007F007D20A81B08080808E633924F
:205D660000A81B08E625E0F608E633F608E633F608E633F6EA2AFAEB33FBEE33FEEF33FFC5
:205D8600300003430201E51B24FAF8C3EA96EB0896EE0896EF0896401CE51B24FAF8EAC36A
:205DA60096FAEB0896FBEE0896FEEF0896FFA81B08E64401F6ED14FCFD709CA81B088682EE
:0E5DC6000886830886F008E6851B81D01B2224
:205DD400C01B85811BC082C083C0F005810581A81B088602088603088604E51B24FBF8E500
:205DF4001B2404F9E6F70809E6F7E51B2404F88606088607E51B2404F816B6FF020816EE4E
:205E14004F60168A828B838CF0E51B24FDF8E6125A48A3AA82AB8380D1A81B0886820886B1
:0A5E3400830886F0851B81D01B2235
:0D000600758166125E5AE5826003020003F8
:1C5E3E0020F71430F6148883A88220F507E6A88375830022E280F7E49322E02273
:045E5A00758200222B
:00000001FF
