:03000000020006F5
:03005F0002000399
:030003000200AF49
:20006200754F00754E002285824E22854E8222854F822285824F2285825085835185F05280
:20008200F553758202020075E582FF600543DC02800353DCFDE555600543DA02800353DA9D
:2000A200FDE554600443DB022253DBFD2275A50375A40875E20175E101759003120000907E
:0300C20000002219
:2000C500AFA7C00712010412010812010F12011912013312013D12014412015812016B1296
:2000E500018012018F1201A81201AD1201BA1201C712019912019D1201A1D0078FA7227502
:20010500A7002275A72075C6042275A70075A4D075D44C2275A5632275A00175A60075A7CC
:200125002075F30175CC0175FC0075FB012275E34075E10575E2032275A71075C130227553
:20014500A70075A900E5A930E7FB75A903E5A930E7FB22AF885388AF758D3074105FFE740A
:20016500405F4E428822740455C8FF53C8FB75CB4475CA8043C804EF42C82274045591FF2D
:200185005391FB439104EF429122758E1C7589214388402243C19F224398102275E6817531
:2001A500A8A022C2DED2DE2253F77F75DA4275FB9675FC962253F77F75DB4275E99675EA27
:0F01C500962253F77F75DC4275EB9675EC962208
:06003500E478FFF6D8FD9F
:200013007900E94400601B7A009001D8780175AA00E493F2A308B8000205AAD9F4DAF275A6
:02003300AAFF22
:20003B007800E84400600A790175AA00E4F309D8FC7800E84400600C7900900001E4F0A3B9
:04005B00D8FCD9FAFA
:0D0006007581551201D4E5826003020003EC
:0401D400758200220E
:00000001FF
